:03000000020030CB
:03000B00020C9C48
:03001B0002036875
:03002300020CF7D5
:0F0030007555007556007581B0755A01755B00E6
:0E003F0075985075C83475CBFF75CAE6D2CAE5
:10004D00758921758CF0758A56758D58D28CD28E26
:0F005D0075A882D2A9D2ACD2AB7544007545000C
:0F006C007571007572007542007543007546008E
:0F007B00751900753C00753D00753E00753F001E
:10008A00753B00120343000200901200ED12016654
:0F009A001201FB120290227F0A7542007543008B
:1000A900782012032F1200ED120166A64408A64516
:1000B90008DFEF12029085673408856835227F0AC8
:0E00C900754200754300782012032F1200EDDF
:0E00D7001201FBA67108A67208DFEF1202905C
:0F00E5008567340885683522C2B4C297E5423377
:1000F4009295D297C297339295D297C2973392959D
:10010400D297C297339295D297C297339295D2974A
:10011400C297339295D297C297339295D297C2974A
:10012400339295D297C297E543339295D297C2976B
:0F013400339295D297C297339295D297C2973351
:100143009295D297C297339295D297C2973392954D
:10015300D297C297339295D297C297339295D297FB
:0F016300D2B422C2B5C297D295D297C297D29585
:10017200D297C297C295D297C297C295D297C29789
:10018200D295D297C297D297C297A2967400D2976D
:10019200C297A29692E3D297C297A29692E2D29780
:1001A200C297A29692E1D297C297A29692E0F544A4
:1001B200D297C297A29692E7D297C297A29692E658
:1001C200D297C297A29692E5D297C297A29692E44C
:1001D200D297C297A29692E3D297C297A29692E240
:1001E200D297C297A29692E1D297C297A29692E034
:0F01F200D297D2B5F545000022C2B5C297D2957B
:10020100D297C297D295D297C297C295D297C297E9
:10021100C295D297C297C295D297C297D297C297E9
:10022100A2967400D297C297A29692E3D297C297F0
:10023100A29692E2D297C297A29692E1D297C297E2
:10024100A29692E0F571D297C297A29692E7D297C1
:10025100C297A29692E6D297C297A29692E5D297BA
:10026100C297A29692E4D297C297A29692E3D297AE
:10027100C297A29692E2D297C297A29692E1D297A2
:0F028100C297A29692E0D297D2B5F572000022F2
:0F029000755D3100120A5C7433120A80120AACD9
:0F029F00755E00E55F120BDEE560120BDEE561B8
:0F02AE00120BDEE562120BDEE563120BDEE56478
:0E02BD00120BDEE565120BDEE55EB566D500C0
:1002CB00120A5C120AFA744E120A8074FF120A8028
:0E02DB007400120A80741F120A8000120A5C5E
:0F02E900120AFA7444120A80120B5C00120A5CAB
:1002F800120AFA120B28755E00E567120BDEE56834
:0F030800120BDEE569120BDEE56A120BDEE56B08
:0F031700120BDEE56C120BDEE56D120BDEE56EF0
:10032600120BDEE55EB56FD022C0E0C3E543249034
:0F033600F543E54234014470F542D0E0227A7C71
:100345007907781900D8FED9F9DAF578E3D8FE00EF
:10035500227A0C79EE781A00D8FED9F9DAF5780DFB
:10036500D8FE22C0E0E5192323900372730203A58A
:10037500000203C3000203F90002042F0002046512
:100385000002049B000207EB00020836000208CCBD
:100395000002090200020938000208810002096E04
:0F03A500753A3775397975385475371C120994C4
:0F03B40020B20975190112097130B2FD02096EEC
:0F03C300753A867539B875383F753777120994D2
:0F03D20020B10975190212097130B1FD20B2096D
:0F03E10075190612097130B2FD20B309751900A4
:0F03F00012097130B3FD02096E753ADB7539B829
:0F03FF0075387775373F12099420B109751903C6
:0F040E0012097130B1FD20B20975190912097177
:0F041D0030B2FD20B30975190012097130B3FD1B
:0F042C0002096E753ACF7539B875380075377893
:0F043B0012099420B10975190412097130B1FD2D
:0F044A0020B20975190812097130B2FD20B309EB
:0F04590075190012097130B3FD02096E753AE68C
:0F0468007539ED75383F75377712099420B10952
:0F04770075190112097130B1FD20B2097519050F
:0F04860012097130B2FD20B30975190012097106
:0E04950030B3FD02096EC28E30A01D30A128CA
:0F04A30030A23330A33E30A449753A08753900B2
:0E04B20075380075370012099480E012097148
:0E04C00030A0FD753A3F754A00803812097170
:0E04CE0030A1FD753A06754A01802A120971A7
:0E04DC0030A2FD753A5B754A02801C12097150
:0E04EA0030A3FD753A4F754A03800E1209715A
:1004F80030A4FD753A66754A048000E54AB40409DB
:0F05080075393F7549000205D275A0FF30A02F4D
:0F05170030A13A30A24530A35030A45B30A56626
:0F05260030A67130A77C30B71130B61175390887
:0E05350075380075370012099480C30205B6B0
:0F0543000205C412097130A0FD75393F754900DA
:10055200807E12097130A1FD7539067549018070DE
:0E05620012097130A2FD75395B754902806285
:0E05700012097130A3FD75394F75490380548F
:0E057E0012097130A4FD753966754904804676
:0E058C0012097130A5FD75396D75490580386D
:0E059A0012097130A6FD75397D754906802A5B
:0E05A80012097130A7FD753907754907801CCF
:0E05B60012097130B7FD75397F754908800E46
:0E05C40012097130B6FD75396F754909800056
:0F05D20075A0FF30A02C30A13730A24230A34DCE
:0F05E10030A45830A56330A66E30A77930B70E1E
:0E05F00030B60E75380875370012099480D4A5
:0F05FE0002067402068212097130A0FD75383FA3
:0E060D00754800807E12097130A1FD75380617
:0E061B00754801807012097130A2FD75385BC0
:0E062900754802806212097130A3FD75384FCA
:0E063700754803805412097130A4FD753866B1
:0E064500754804804612097130A5FD75386DA8
:0E065300754805803812097130A6FD75387D96
:0E066100754806802A12097130A7FD7538070A
:0E066F00754807801C12097130B7FD75387F81
:0E067D00754808800E12097130B6FD75386F91
:0E068B00754809800075A0FF30A03830A143EB
:0E06990030A24E30A35930A46430A56FE54A5C
:1006A700B4040DE548B4090875370812099480D9D0
:0F06B70030A66830A77330B77E30B608753708A5
:0E06C60012099480C502074C12097130A0FD84
:0E06D40075373F754700807E12097130A1FD19
:0E06E200753706754701807012097130A2FD50
:0E06F00075375B754702806212097130A3FDF9
:0E06FE0075374F754703805412097130A4FD03
:0E070C00753766754704804612097130A5FDE9
:0E071A0075376D754705803812097130A6FDE0
:0E07280075377D754706802A12097130A7FDCE
:0E073600753707754707801C12097130B7FD33
:0E07440075377F754708800E12097130B6FDBB
:0F07520075376F7547098000E54A75F064A4F9A3
:10076100AAF075F00AA4F9EAAAF075F00AA42AFA27
:0F077100E54975F064A429FBE5F03AF5F0EBF9E2
:10078000AAF0E54875F00AA429FBE5F03AF5F0EB8C
:10079000F9AAF0E54775F001A429FBE5F03AF5F078
:0F07A000EBF543E5F04470F54212099420B111D6
:0E07AF00D28E75190012097130B1FD1200943E
:0E07BD000203A520B211D28E75190012097127
:0E07CB0030B2FD1200940203A520B311D28EAD
:0F07D90075190012097130B3FD1200940203A5C7
:0F07E8000207A9E542540FF5408543411209E588
:0F07F700853C3A853D39853E38853F3712099458
:0F08060020B10C75190012097130B1FD0203A564
:0F08150020B20C75190012097130B2FD0203A553
:0F08240020B30C75190012097130B3FD0203A542
:0F08330002096EE544540FF5408545411209E571
:0F084200853C3A853D39853E38853F371209940C
:0F08510020B10C75190012097130B1FD0203A519
:0F08600020B20C75190012097130B2FD0203A508
:0F086F0020B30C75190012097130B3FD0203A5F7
:0F087E0002096EE571540FF5408572411209E5CC
:0F088D00853C3A853D39853E38853F37120994C1
:0F089C0020B10C75190012097130B1FD0203A5CE
:0F08AB0020B20C75190012097130B2FD0203A5BD
:0F08BA0020B30C75190012097130B3FD0203A5AC
:0F08C90002096E120C0212099420B10C7519006D
:0F08D80012097130B1FD0203A520B20C75190091
:0F08E70012097130B2FD0203A520B30C75190080
:0F08F60012097130B3FD0203A502096E753AB8FD
:0F09050075397775383F75373F12099420B1095E
:0F09140075190A12097130B1FD20B20975190B5E
:0F09230012097130B2FD20B30975190012097164
:0F09320030B3FD02096E753AB875397775383FE5
:0F09410075370612099420B10975190912097149
:0F09500030B1FD20B20975190712097130B2FDDF
:0F095F0020B30975190012097130B3FD02096E3A
:0E096E00D0E032C03AC039C038C037753A0008
:0F097C007539007538007537001209941203564B
:10098B00D037D038D039D03A22E555232390099C63
:10099B00730209AC000209BA000209C8000209D6A9
:0F09AB00005390F0853780D2907555010209E412
:0E09BA005390F0853880D2917555020209E401
:0E09C8005390F0853980D2927555030209E4F0
:0F09D6005390F0853A80D2937555000209E422C0
:0F09E500A940A8417B037AE8120A17EA120A4FC9
:0F09F400F53C7B007A64120A17EA120A4FF53DB0
:0E0A03007B007A0A120A17EA120A4FF53EE843
:100A1100120A4FF53F22C37C007D0075F00005F0FE
:0F0A2100EA33FAEB33FB50F6EB13FBEA13FAC39D
:100A300089078806E89AF8E99BF95004A907A806EF
:100A4000B3EC33FCED33FDD5F0DFAB05AA04220493
:100A500083223F065B4F666D7D077F6F7403C2B3D1
:0F0A600075F0A0D5F0FDD2B375F004C320B30834
:100A6F00D5F0FAD5E0F7800875F046A0B3D5F0FBC6
:100A7F0022C0F075F00813120A8FD5F0F9D0F022CA
:100A8F00C2B3757F01120AA892B3757F14120AA818
:100A9F00D2B3757F14120AA822D57FFD22120AD570
:0F0AAF00F55F120AD5F560120AD5F561120AD566
:0F0ABE00F562120AD5F563120AD5F564120AD54E
:100ACD00F565120AD5F566227B087400120AE0134B
:0F0ADD00DBFA22C0E0C2B3000000D2B3757F0283
:100AEC00120AA8A2B3757F14120AA8D0E02274557A
:0F0AFC00120A80E55F120A80E560120A80E56148
:0F0B0B00120A80E562120A80E563120A80E5642F
:100B1A00120A80E565120A80E566120A802274BE0E
:0E0B2A00120A8000120AD5F567120AD5F56886
:0F0B3800120AD5F569120AD5F56A120AD5F56BBE
:0F0B4700120AD5F56C120AD5F56D120AD5F56EA6
:100B5600120AD5F56F22780179257A64DAFED9FA78
:0F0B6600D8F622E5FF656775F008C313D5F0FBDD
:100B750050F9655D656875F008C313D5F0FB50F94C
:100B8500655D656975F008C313D5F0FB50F9655DC2
:100B9500656A75F008C313D5F0FB50F9655D656BA3
:0E0BA50075F008C313D5F0FB50F9655D656C63
:0E0BB30075F008C313D5F0FB50F9655D656D54
:0E0BC10075F008C313D5F0FB50F9655D656E45
:0F0BCF0075F008C313D5F0FB50F9655DF57E2274
:100BDE00C0E0C0F0C0E075F008655E13E55E50023F
:0F0BEE00641813F55ED0E003C0E0D5F0ECD0E062
:100BFD00D0F0D0E022C3E56833402A3333333333AA
:100C0D0092F63392F53392F4E5673392F33392F221
:100C1D003392F13392F08000335005786D020C6EF3
:0F0C2D00783F020C6E7B40333333333392F63310
:100C3C0092F53392F4E5673392F33392F23392F1F7
:0F0C4C003392F0335002786D783FE5F075F04049
:100C5B0095F075F00A84120A4FFAE5F0120A4FF973
:100C6B00020C90E5F075F06484B400047B00800501
:0F0C7B00B401F67B06E5F075F00A84120A4FFA11
:0F0C8A00E5F0120A4FF98837748049F5388A3936
:100C99008B3A22C0D0C003C2D3C28CAB5ABB010865
:100CA900755A02D003D0D032BB0314755A04C28CD2
:0F0CB900C28D758C3C758A06D28CD003D0D03298
:0F0CC800BB0427C0E0C0F0C000C001C002C004E0
:0F0CD700C005C006C007120DA2D007D006D00579
:100CE600D004D002D001D000D0F0D0E0D003D0D0D4
:0F0CF60032C0D0C0E0C0F0C000C003C2D3AB5AC0
:100D0500209830E55BB55913755A02755B00D00321
:100D1500D000D0F0D0E0D0D0C299327870E8255913
:100D2500F8E6F5990559D003D000D0F0D0E0D0D041
:100D3500C29932C298BB0115C28C758CF0758A5662
:100D4500D28CD003D000D0F0D0E0D0D032BB022B73
:0F0D5500755B00C28CC28D758CF9758A49D28C82
:0F0D6400755A03E599F5F07470255BF8E5F0F624
:100D7300055BD003D000D0F0D0E0D0D032BB03026B
:0F0D830080D3BB040FC28CC28D758CF0758A565D
:100D9200D28C755A01D003D000D0F0D0E0D0D0323E
:100DA200E55BFF1F1F120EA174702FF8E6B50D0E42
:0E0DB20008E6B50E097870E6B40103020DC321
:100DC000020E5C7871E6B4032F08E66003020E6F32
:0F0DD00008E6FEC394204003020E6F08E660039E
:100DDF00020E5D08E6FD142EC394204003020E5D43
:0F0DEF00755B02120EE5020E81B40403020DC9FA
:100DFE00B4061708E6B4000F08E6FEC394205007A9
:0F0E0E0008120ED3020E9B020E6FB4102F08E6CF
:100E1D006003020E6F08E6FEC394204003020E6FBE
:0F0E2D0008E66003020E5D08E6FD142EC3942054
:100E3C004003020E5D755B06120F0B020E8174707F
:100E4C002401F8E6D2E7F6087401F67C03020E8161
:100E5C002274702401F8E6D2E7F6087403F67C03DA
:100E6C00020E8174702401F8E6D2E7F6087402F6DB
:0E0E7C007C03020E81F5F07470255BF8E5F042
:0F0E8A00855B07120EA1E50DF608E50EF6055B78
:100E9900055B755900D29922750DFF750EFF7870A3
:0F0EA9008FF0E6650DF50D7E08E50EC313F50E0F
:0F0EB800E50D13F50D500CE50D6401F50DE50E7C
:100EC70064A0F50EDEE508DFDBAFF022EE23242079
:0E0ED70004F9E6F71908E6F7E520F4F5902295
:100EE5001200A1ED23F5F07470255BF8E5F0F60826
:0F0EF500055BEE2420F97400F608055BE7F608AC
:100F0400055B0501DDF1227470255BF808EE2420F1
:0A0F1400F908E6F7080501DDF822F0
:00000001FF
